:0400000080312828FB
:100008007E1480310B1F09280A2826282100911CFC
:100018000E280F2818282000911C132814281828A7
:1000280084317424803126282100111C1C281D28A5
:1000380026282000111C212822282628843127243C
:10004800803126287E10090080312A2882308400D9
:100058008430850034308600003087000D308431CC
:10006800E8248031F901FA01FB01FC01C901CA0148
:10007800CB01CC01CD01CE017E1020008031442877
:1000880084313D24803162302000A0000230A1007C
:100098008431F4248031A3302000A0000330A10073
:1000A8008431EE2480318B170B178231DF228031A7
:1000B80020002D08C2002C08C1004208803AB20076
:1000C80080303202031D6A2801304102031C6D286A
:1000D8006E28812820004208803AB200803032021F
:1000E800031D78286830410203187B287C28812862
:1000F80010302000B2003208C00620004208803AC2
:10010800B20080303202031D8B286A304102031C82
:100118008E288F28A92820004208803AB200813012
:100128003202031D99283930410203189C289D2862
:10013800A928031022000C1E03140318A428A728BA
:1001480022000C16A92822000C1220004208803A2E
:10015800B20081303202031DB3283B304102031C38
:10016800B628B728D12820004208803AB200833048
:100178003202031DC128423041020318C428C52891
:10018800D128031022008C1E03140318CC28CF2872
:1001980022008C16D12822008C1220004208803AB6
:1001A800B20083303202031DDB2844304102031CB5
:1001B800DE28DF28F02820004208803AB200833089
:1001C8003202031DE928993041020318EC28ED2872
:1001D800F0288131BD21803120004208803AB200E8
:1001E80083303202031DFA289B304102031CFD288C
:1001F800FE280F2920004208803AB20083303202DC
:10020800031D0829A830410203180B290C290F29BE
:1002180081315C21803120004208803AB20083306D
:100228003202031D1929AA304102031C1C291D2969
:100238002E2920004208803AB20084303202031D81
:1002480027292B30410203182A292B292E298231EC
:10025800A922803120004208803AB200843032025C
:10026800031D38292D304102031C3B293C294D2907
:1002780020004208803AB20084303202031D462929
:1002880033304102031849294A294D298231132262
:10029800803103302000B3000830B2007730890B7A
:1002A8005329B20B5329B30B5329592880312828D5
:1002B80020003908FA003808F9003B08CA003A0853
:1002C800C900FB01FB0A22000C128C121930200015
:1002D800A1005A30A000B130890B7029A00B7029F9
:1002E800A10B702900322000A201A30103302000D5
:1002F800A1000830A0007730890B8029A00B802945
:10030800A10B802922000C168C1603302000A100B6
:100318000830A0007730890B8F29A00B8F29A10BFB
:100328008F2922000C128C1201302000A207003005
:10033800A33D2308803AA00080302002031DA6298F
:100348000D302202031CA929AA297A29B7290330CA
:100358002000A1000830A0007730890BB129A00B3C
:10036800B129A10BB1297B08031DBB29BC29AB29E5
:10037800080020003D08FA003C08F9003F08CA00C0
:100388003E08C900FB01FB0A22000C128C12200057
:10039800A201A30104302000A1000C30A0003330DA
:1003A800890BD429A00BD429A10BD429003222000F
:1003B8000C168C1604302000A1004030A000263016
:1003C800890BE429A00BE429A10BE42900002200F1
:1003D8000C128C1201302000A2070030A33D230824
:1003E800803AA00080302002031DFC29043022023C
:1003F800031CFF29002ACE290D2A03302000A10062
:100408000830A0007730890B072AA00B072AA10B18
:10041800072A7B08031D112A122A012A0800200036
:100428003508FA003408F9003708CA003608C90048
:10043800FB01FB0A22000C162000A201A3010530D3
:100448002000A1000F30A000F130890B292AA00B51
:10045800292AA10B292A031022008C1E0314031831
:10046800362A392A22008C163B2A22008C120130A7
:100478002000A2070030A33D2308803AA000803066
:100488002002031D492A07302202031C4C2A4D2A48
:10049800232A22000C125C2A03302000A100083015
:1004A800A0007730890B562AA00B562AA10B562A92
:1004B8007B08031D602A612A502A080022000E11B9
:1004C8008E110E128E122000401C6B2A6C2A6E2A86
:1004D80022008E162000C01C722A732A752A220058
:1004E8000E162000401D792A7A2A7C2A22008E15B1
:1004F8002000C01D802A812A832A22000E15200090
:10050800401E872A882A992A4008F0000330F036CE
:10051800890B8B2A01307005F10040350F397104C1
:10052800F2007208C0004016A82A4008F000033004
:10053800F035890B9C2A0F307005F10040360739D9
:100548007104F2007208C00008002000A201A30193
:1005580022000C168C1606302000A1001330A000D3
:10056800AD30890BB52AA00BB52AA10BB52A0032EC
:1005780022000C128C120B302000A1002630A000A3
:100588005D30890BC52AA00BC52AA10BC52A0032EC
:1005980001302000A2070030A33D2308803AA000C4
:1005A80080302002031DDA2A06302202031CDD2ACD
:1005B800DE2AAC2A080020004E08A3004D08A2003D
:1005C8004C08A1004B08A0004C30A7009530A600AD
:1005D8007F30A5002D30A4008331142382310130EF
:1005E80020002007CB000030213DCC000030223D08
:1005F800CD000030233DCE004B08AE004C08AF00C4
:100608004D08B0004E08B1001130B136B00CAF0C37
:10061800AE0C890B092B2F08AD002E08AC00080082
:1006280000302000AB000030AA000030A9000030E4
:10063800A800201C202B212B292B2408A8072508DB
:10064800A93D2608AA3D2708AB3D0130A435A50DD4
:10065800A60DA70D890B2A2B0130A336A20CA10CDD
:10066800A00C890B312B2308220421042004031D2C
:100678003E2B3F2B1D2B2B08A3002A08A20029087C
:10068800A1002808A000080084319C248331A030F0
:100698008331CB2383318431B62483317508833188
:1006A800CB2383318431B624833174088331CB233F
:1006B80083318431B624833184319C248331A13041
:1006C8008331CB2383318431B6248331833178233A
:1006D8008331F6007608F7008431A9248331843108
:1006E8008F24833177080800F3018431DA248331B9
:1006F800F101F2018431E124833120008E1C852B25
:10070800862B892B0314F30D8D2B7335F00070089D
:10071800F3008431C92483310130F1070030F23D00
:100728007208803AF00080307002031D9D2B08305B
:100738007102031CA02BA12B7E2B730808007B08D9
:100748000319A72BA82BCA2B7A08F5007908F400FF
:10075800833148238331F8007808FC007C08853110
:10076800002583310130F9070030FA3D20004A089E
:100778007A06031DC12B49087906031DC42BC52B16
:10078800CA2BFB0100308531002583310800F100B8
:10079800F201F11FD02BD12BD52B8431DA248331F0
:1007A800D82B8431C02483318431E12483318431CE
:1007B800C92483317135F0007008F1000130F00070
:1007C8007008F20708307202031CEB2BEC2BCD2BC0
:1007D8008431DA248331080022008C018E0107302D
:1007E80021008C008E0123008E0107308C0024002C
:1007F8008C018E012100951725008C018E01373060
:1008080026008C003F308E003F3027008C003F30A0
:100818008E00080020009901C330970074309600BC
:1008280011101708C8001608C700210011140A3053
:100838002000A0000530A1008431F4248431C530A3
:10084800200098000800200011104808F10047080F
:10085800F0008431632484312000450846040319DC
:10086800362C372C3C2C46088A0045080A0084316F
:1008780008008331F02384318431D22484318531D6
:10088800052584318431FA2484318431502484311B
:1008980084310E2484310800F93020009B009A012D
:1008A80091102100911409302000A0000530A1000A
:1008B8008431EE2484310C3020009C000800200094
:1008C800181D672C682C6F2C181071089700700879
:1008D80096001814732C7108970070089600080089
:1008E800200091104308440403197B2C7C2C812C94
:1008F80044088A0043080A0084310800C334CA3413
:10090800FF34F93443342734C334CA340034003450
:100918004334273411348431C92484318431C024C8
:1009280084318431E12484318431DA24843108002B
:100938008431DA2484318431E12484318431C0243F
:1009480084318431C924843108008431C02484313D
:100958008431E12484318431C92484318431DA2416
:10096800843108008431DA2484318431E1248431EB
:100978008431C9248431080022008E1021008E1091
:100988000D30890BC52C0000080022000E10210034
:100998000E100D30890BCE2C000008007830210095
:1009A80099009A01980122009601080021008E14EE
:1009B8000D30890BDD2C0000080021000E140D30CD
:1009C800890BE42C00000800FE0012001E00FE0B3C
:1009D800E92C003420002108C4002008C3000800C6
:1009E80020002108C6002008C50008009030220019
:1009F8009800333099000800F00070082200990030
:0E0A08000800163021009700080008000800C2
:020000040001F9
:04000E00E43FFF3E8E
:00000001FF
