:020000000F28C7
:100008007E1480310B1F0D284E0117180D1C0D286A
:1000180044277E10090010287127E0007227E100AC
:100028007327E2007427E300D201D301D401D5017C
:10003800D601D701D801D901DA01DB017E104001D0
:100048003F2C400118110130C5000030C600643053
:10005800C7000030C8001227400146084101B1001E
:10006800400145084101B00001304001C5000030A1
:10007800C6000230AC000030AD004101310840013B
:10008800AF00410130084001AE00AC2440012D080A
:10009800C8002C08C7001227400146084101B300D8
:1000A800400145084101B20000304001C500C600CA
:1000B8000230AC000030AD00410131084001AF0012
:1000C800410130084001AE00AC2440012D08C800B1
:1000D8002C08C7001227400146084101A70040012B
:1000E80045084101A600E8280130C5000030C600D7
:1000F8000A30AC000030AD00410131084001AF00CA
:10010800410130084001AE00AC2440012D08C80070
:100118002C08C700122701304001C5000030C60076
:100128000230AC000030AD00410131084001AF00A1
:10013800410130084001AE00AC2440012D08C80040
:100148002C08C700122701304001C5000030C60046
:100158000A30AC000030AD00410131084001AF0069
:10016800410130084001AE00AC2440012D08C80010
:100178002C08C7001227400146084101B30040017E
:1001880045084101B20001304001C5000030C600F9
:100198000A30AC000030AD00410131084001AF0029
:1001A800410130084001AE00AC2440012D08C800D0
:1001B8002C08C7001227400146084101A70040014A
:1001C80045084101A600F62840015008003A0319E5
:1001D800EE28F6284F08013A03197828023A03193D
:1001E800A728F6284101320826074001AC00410142
:1001F8003308273D4001AD00410131084001AF00FF
:10020800410130084001AE00AC2440012D084101F5
:10021800A10040012C084101A000A201A301052A68
:100228002C30AC000130AD009F264101330840015D
:10023800CA00410132084001C90022264101A80133
:10024800A90129084001AD00410128084001AC007E
:100258009F2602304001AC000030AD004101330858
:100268004001AF00410132084001AE00AC2440011A
:100278002D08B6002C08B500652601304101A807F5
:100288000030A93D03302902E83003192802031C75
:100298002529E830AA000330AB002B084001AD0047
:1002A80041012A084001AC009F2602304001AC0001
:1002B8000030AD00410133084001AF004101320870
:1002C8004001AE00AC2440012D08B6002C08B50052
:1002D800652601304101AA020030AB3B2A082B04F5
:1002E800031D512920304001AC000330AD009F268A
:1002F800410133084001CA00410132084001C900E8
:1003080022264101AC01AD012D084001AD0041019B
:100318002C084001AC009F26410133084001B6007B
:10032800410132084001B500652601304101AC07A2
:100338000030AD3D03302D02E83003192C02031CB8
:1003480088294101AE01AF012F084001AD004101EC
:100358002E084001AC009F264101A401A5014101DE
:1003680033084001B600410132084001B500652656
:1003780001304101A4070030A53D2508803A40011D
:10038800D10080305102031DCC2964304101240280
:10039800031CB32964304101AE070030AF3D033080
:1003A8002F02E83003192E020318F229A829400168
:1003B8005008003A0319E129F2294F08013A0319B4
:1003C8001429033A03192229013A03197629073A0D
:1003D80003198529013A0319A529F229003040019A
:1003E800AC00AD009F26410127084001CA00410129
:1003F80026084001C900222601304101A207003029
:10040800A33D2308803A4001D10041012108803AE8
:1004180040015102031D132A410120082202031C36
:10042800DB29400118150800400118114101A001FD
:10043800A10101304001C5000030C6006430C7008A
:100448000030C800122741012108803A4001C90044
:100458004608803A4902031D342A45084101200212
:100468000318AE2A4101A201A30140015708630203
:10047800031D402A5608620203184A2A62085602D7
:100488004101A40040016308573B512A5608620203
:100498004101A40040015708633B4101A500FF301A
:1004A8004001C9000330CA0060084902CB00610856
:1004B8004A3BCC004B35AE004C0DAF00FF30AC00D2
:1004C8000330AD008A2540012D08B5002C08B40082
:1004D800410125084001B700410124084001B60048
:1004E8008326400135084101A50040013408410137
:1004F800A400400160084101A407400161084101CE
:10050800A53D25084001AD00410124084001AC008B
:100518009F2603304001C9009730890B912AC90BE7
:10052800912A003201304101A2070030A33D23087F
:10053800803A4001C90083304902031DA62AE830E9
:1005480041012202031C392A01304101A007003071
:10055800A13D1D2A00304001AC00AD009F2640019E
:1005680018150800F8007808031DF31FCB2A700936
:10057800FA007109FB007209FC007309FD00FA0A10
:100588000319FB0A0319FC0A0319FD0AD32A730885
:10059800FD007208FC007108FB007008FA0073087F
:1005A800720471047004031DE22A0030F300003065
:1005B800F2000030F1000030F00008009630F4003E
:1005C8007408F900FE307D050319092B0130F40089
:1005D8007408F9070130FD36FC0CFB0CFA0C890B8A
:1005E800EF2AE62A0130F4007408F9070130FA0707
:1005F8000030FB3D0030FC3D0030FD3D0130FD3654
:10060800FC0CFB0CFA0C890B032BFF307D0503193E
:100618001B2BF62A02307902031C1D2B0130F9022C
:100628000130FA35FB0DFC0DFD0D890B152BFC1F58
:100638000E2B7918272BFF30FA05FF30FB057F308A
:10064800FC05FF30FD050310F90C7908F400F501ED
:10065800F601F7011830F435F50DF60DF70D890B95
:100668002F2B7408FA047508FB047608FC04770835
:10067800FD047808031DF31F422BFD177D08F300C6
:100688007C08F2007B08F1007A08F00008000030CE
:1006980040012005A80000302105A900803022056E
:1006A800AA007F302305AB002B082A04290428045C
:1006B800031D662B0030A3000030A2000030A1000B
:1006C8000030A00000302405A80000302505A9004E
:1006D80080302605AA007F302705AB002B082A04A6
:1006E80029042804031D802B0030A7000030A60031
:1006F8000030A5000030A400A31F9A2B0030A800EA
:100708000030A9000030AA008030AB002008A80201
:100718002108A93B2208AA3B2308AB3B2B08A300CE
:100728002A08A2002908A1002808A000A71FB42BA6
:100738000030A8000030A9000030AA008030AB00CB
:100748002408A8022508A93B2608AA3B2708AB3B92
:100758002B08A7002A08A6002908A5002808A40035
:100768008030A3068030A70627082302031D08004F
:1007780026082202031D080025082102031D08007F
:1007880024082002080000304001C500C60064307B
:10079800C7000030C800122740014608CD004508B0
:1007A800CC004D08803ACB0080304B02031DDE2B75
:1007B80005304C020318E42B4001C901CA010800A6
:1007C800FB304001CC07FF30CD3D4D08803ACB00CF
:1007D80080304B02031DF22B32304C020318FA2BE7
:1007E80001304001C9000030CA000800CE30400185
:1007F800CC07FF30CD3D4D08803ACB0080304B020E
:10080800031D082C0A304C020318102C023040013A
:10081800C9000030CA000800F6304001CC07FF309C
:10082800CD3D4D08803ACB0080304B02031D1E2C75
:1008380023304C020318302C03304001C50000302F
:10084800C6000730C7000030C8001227400146081C
:10085800CA004508C900080000304001C500C600AC
:100868000730C7000030C800122740014608CA00F8
:100878004508C9000800512744304001AC00053044
:10088800AD0065278B170B1340019812181500301F
:10089800AC00AD009F263C304001C9000030CA00C2
:1008A80022260B171A304101B400F830890B5A2C54
:1008B800B40B5A2C0000872CE6261822CF260130CC
:1008C8004001CF000030D000252002304001CF0089
:1008D8000030D000252003304001CF000030D00088
:1008E800252004304001CF000030D00025200530FD
:1008F8004001CF000030D000252001304001C90060
:100908000030CA00222640018C1E472CC723400114
:100918004A08003A0319912C812C4908003A031916
:10092800602C013A0319612C033A0319622C013A2D
:100938000319632C073A0319692C013A03196F2C20
:10094800033A0319752C013A03197B2C812C812C4D
:100958004001B201AD1FB72CAC09AD09AC0A0319AF
:10096800AD0AB201B20AAF1FC22CAE09AF09AE0A76
:100978000319AF0A0130B0003008B206B301B40160
:100988002C082D040319F12CB101B10AAD1BD62C8A
:100998000130AC35AD0D890BCD2C0130B0003008DD
:1009A800B107CA2C0130B335B40D890BD72C2D08EB
:1009B8002F02031DE12C2C082E02031CE82C2C0806
:1009C800AE022D08AF3B33140130AD36AC0C890BA9
:1009D800E92C0130B102031DD62C32080319F92C79
:1009E800B309B409B30A0319B40A3408AD003308CB
:1009F800AC0008004001C401C11F092DC009C1098C
:100A0800C00A0319C10AC401C40ABF1F102DBE09B8
:100A1800BF09BE0A0319BF0A3E083F040319372D50
:100A2800C301C30ABF1B222D0130BE35BF0D890B80
:100A3800192D0130C2004208C307162D3F08410294
:100A4800031D282D3E084002031C2E2D3E08C0021F
:100A58003F08C13B0130BF36BE0C890B2F2D01303A
:100A6800C302031D222D440803193F2DC009C109E3
:100A7800C00A0319C10A4108BF004008BE000800A7
:100A88006B2771084001D7007008D6005708F1009D
:100A98005608F0004426003A03195D2D40019816C7
:100AA8000030D5000030D4000030D3000030D20030
:100AB800080040015508F3005408F2005308F100FB
:100AC8005208F0000030B62273084001A3007208F3
:100AD800A2007108A1007008A0004930A7009F304B
:100AE800A6003830A500DF30A4004B230318862D5C
:100AF80001304001D2070030D33D0030D43D0030F2
:100B0800D53D08000B134001981208004001B201BE
:100B1800B3012C082D040319BA2DB101B10AAD1B7C
:100B28009F2D0130AC35AD0D890B962D0130B000ED
:100B38003008B107932D0130B235B30D890BA02DC4
:100B48002D082F02031DAA2D2C082E02031CB12DDF
:100B58002C08AE022D08AF3B32140130AD36AC0C78
:100B6800890BB22D0130B102031D9F2D3308AD0052
:100B78003208AC00080040015B08AF005A08AE001C
:100B88005908AD005808AC004C30B3009530B2009D
:100B98007F30B1002D30B000F225013040012C0724
:100BA800D80000302D3DD90000302E3DDA0000304D
:100BB8002F3DDB005808BA005908BB005A08BC0092
:100BC8005B08BD001130BD36BC0CBB0CBA0C890BE0
:100BD800E72D3B08B9003A08B8000800003040018A
:100BE800B7000030B6000030B5000030B4002C1C4F
:100BF800052E3008B4073108B53D3208B63D330834
:100C0800B73D0130B035B10DB20DB30D890B062ECD
:100C18000130AF36AE0CAD0CAC0C890B0D2E2F0885
:100C28002E042D042C04031DFB2D3708AF003608B5
:100C3800AE003508AD003408AC0008004001CD0115
:100C4800CE014E08803ACB004A08803A4B02031D79
:100C58002F2E49084D02031808000B304001CC0024
:100C68002630CB005D30890B372ECB0B372ECC0BC3
:100C7800372E003201304001CD070030CE3D252E01
:100C8800F401F40A400160086207F2006108633D5C
:100C9800F30071087302031D532E70087202031CBF
:100CA800632E60086202F2006108633BF300730878
:100CB8007102031D612E720870020318F401740892
:100CC80008004001B801B9013908803AB700360870
:100CD800803A3702031D722E3508380203180800BF
:100CE80003304001B7009730890B782EB70B782E68
:100CF800003201304001B8070030B93D682E40018C
:100D0800B801B901341C8C2E3608B8073708B93D2C
:100D18000130B635B70D890B8D2E0130B536B40CC0
:100D2800890B922E34083504031D862E3908B50028
:100D38003808B400080040012D08AF002C08AE00A8
:100D4800AF36AE0CAF36AE0C2E084601950040010A
:100D58002C080339AE000530AE35FF3E031DB02E1A
:100D68002E3546019400080044018F01900101309E
:100D78009100B1308D00E0308C004E018D1244019D
:100D88000D084001DF0044010C084001DE0001307D
:100D980044018E000800400118150030AC00AD0079
:100DA8009F2601304001C5000030C6006430C700EE
:100DB8000030C800122740014608CA004508C9008B
:100DC80022260800400118150030AC00AD009F260F
:100DD80001304001C5000030C6006430C700003053
:100DE800C800122740014608CA004508C900222643
:100DF80008000430400198000B30920017307E0143
:100E0800B800B901BA013730BB003F30BC0005302B
:100E18007D01C30003307E019400080040014708AB
:100E2800013EBE000030483DBF00BF2540013908E3
:100E3800C1003808C000FE2440013F08C6003E0833
:100E4800C5000800D03041019E009B019C0105307F
:100E58009D004E01171478304001AC000730AD00FA
:100E6800652708000130450190008F019101FF308E
:100E78008D008C014E010D13803045018E00080055
:100E88004E010D1040015C085D04031908005D085F
:100E98008A005C080A0087310800FD265F2775274D
:100EA800262759273627B82608008030460196009D
:100EB80095019401080051019101033093009201BA
:100EC800080040012D08DD002C08DC000800410165
:100ED8001C08F1001B08F0000800CC340034FF3473
:0A0EE800013450018C0108000800DD
:020000040001F9
:04000E00CD3FE73FBC
:04001400FF3FFF3F6C
:00000001FF
