:020000040000FA
:0400000080310D2816
:1000060008007E1480318B1A0B1D0B289B3156235A
:100016007E10090080310F2821009B311223803188
:10002600AE009B3113238031AF009B311423803106
:10003600B0009B311523B1002000E001E101E2018F
:10004600E301E401E501E601E7012100AA01AB01B4
:10005600AC01AD017E1020009D31A32D7A346134B0
:100066008B34D53438346234B73447344F34BA34E9
:10007600AF3439347834B53451346C34C4345E34E6
:100086003D349D34BA3457345234BB346F34503413
:10009600BF3476344834973495343B348134B6349F
:1000A60045348534F034683428349534663426343F
:1000B6009734C134C134B3346934253400348D34B3
:1000C60074349634FD34EB34403400340A3400344E
:1000D6005734F534FD34FC34EF3427340034063419
:1000E60091349734C834FD34D7344734003412344D
:1000F60000346134E834FD34FC34F5342B340034F8
:100106002C342E346234DC34FD34F8347C340A3436
:10011600093400346B34C734DE34F734FD344734E5
:100126000034103408342F34C634FD34EF34FD3433
:1001360078340034043449343F34A434FD34FA347A
:10014600E13458340B340034443459349234FA349C
:10015600FD34D3343C340C34003416349434A43493
:10016600D734FD34EB343C3400340D34003447349A
:10017600CE34E934EC34FD349C34053400343B345D
:1001860038345134D034FC34FD34D2344E340F3448
:100196000034433482347834F434FB34F534923406
:1001A60033340034123465345C34BC34FD34F934F1
:1001B600F23488340D34003422347B346C34D03439
:1001C600FD34FD34D63448340734013400347E34EB
:1001D600BF34B034F934FD34C9340E34003402343B
:1001E60000347C34C834C234F134FD34C034413474
:1001F6000D340034163485347A34C534FD34F03485
:10020600EE3484340634003424344D346A34CA342B
:10021600FD34F234FD34BB340F3400341634193453
:100226003F34B134FA34FC34F434FD345B340034F6
:100236000334223434345634DB34F434FC34F934A5
:10024600FD34453400340534043437349934E43409
:10025600DE34F534FD34BA341F340034003400344F
:100266003034BA34B134D534FD34FB34DB341F3486
:100276000034003400342334A934D534BA34F93484
:10028600FC34E93462340434003400340D349534DB
:10029600BC349F34F134FD34F834AB344334043485
:1002A60000340A34683477349434DB34FD34F03463
:1002B600E834D1342234003400340C343034A134E0
:1002C600C934B934F734FD34E134AB344034013445
:1002D6000034123468346B34C034D534D334FD342E
:1002E600FA34C03443340E34003400344C346D34A4
:1002F6009034E234EA34DD34FB34F0348C34283480
:100306000334003410345F347434B334D434C83412
:10031600F734FC34C83488343734003400341A34A3
:1003260052346F34B834E434D034DB34FD34E8343A
:1003360095343B340C34003405344B3477348F34E5
:10034600CD34EA34D534E334FD34CE3461340B3461
:10035600023400341034733484349F34C634EA349F
:10036600E034D434FB34D5346234063400340034FB
:1003760000346534AD34A334A734CC34F434CE34ED
:10038600E134E8348C3427340034033400342C341C
:100396009734A334A634D034CB34C034E434F534A3
:1003A600B334803439340234003412343F34723476
:1003B600A834D334B5349F34DD34E734C334CE3473
:1003C600BD343D3400340234003414347634B13450
:1003D6009D34B134CE34B234B534DB34E234B53482
:1003E6008E345B340734003400340E344F3490348A
:1003F600CA34C4349834B934C234B034CD34D23467
:100406009F346D342F34013400340934403466345B
:100416009B34C734C434A134B534BF34AF34CC3480
:10042600CB349B347E3452340C34003400343534AF
:100436005C348934C434BD34A434B534B534A03402
:10044600B534CD34C434963490345634083400343C
:1004560002340C3447348934C434B234AC34C13435
:1004660099349034B634C834AD34B434A9347F34B6
:1004760053342434033400341634543476349834E4
:10048600C234B634A234AE34A9348B34AA34C3345D
:10049600AC34A334AB34943452342634123400349E
:1004A6000634353479348F34A534B734BA34A234AB
:1004B6009734A5348B349134B834B6349B34A23493
:1004C6009C346D344E341F3400340F342A343B349C
:1004D6006834A634B034AB34B834A9349134993482
:1004E600973485349734B634A73498349E3495348B
:1004F60072346034323406340B3422344334543488
:100506007F34A834BB34B234A434AB34A03488343A
:100516008E348D3482349A34AD34A5349634923484
:1005260093347F3464343E342734183410343334EF
:100536004C3462348534AB34B634AB34AC34AC347E
:1005460094348C34963488347C348634943496349B
:10055600A034A2348D34853487347C3467345534E2
:1005660033341834253434343F34533476349534A4
:10057600A034AD34B634A8349C349E3498348934CF
:100586008C348B347F3480348B348A348B349D3472
:100596009E349034843485347B346E3475346534BB
:1005A60044342F34303435343A344F3466346A3474
:1005B60081349F34A934AA34AE34A8349B3497349A
:1005C60094348A3489348C34843480348034863448
:1005D6007D34813487348D348D3495348C34833432
:1005E6007E347F3477346D34733476344E34163437
:1005F6000034113458348634B334F134F534663467
:100606003E343734C834B434443442349334E93451
:100616004F3446346334F53481343E344634CD3475
:10062600C3343A3441348634F734513441344E3489
:10063600F6348C3436343734BC34DC3439343E3416
:100646006B34FD34603438343D34DA34B934323402
:1006560039348534FD34553436344634E834A934D7
:10066600303437349634F5344C3434344C34F33433
:100676009D342D343434A134F834433436344F3475
:10068600FA349D34283438349C34F93448343734B9
:100696004934ED34AA342F3434348A34FD3450349A
:1006A6002D344434EB34BF342A343D347934FD34AC
:1006B60068342F343734C634DD34333430345D3463
:1006C600FD348A34273435349E34F834493434348E
:1006D6004134E234C334293431347234FD3477344E
:1006E6002A343834AC34F23440342F344534F334BD
:1006F600BE34263436346A34FD347D3428343234FC
:10070600AC34FD34403430344234D334CF342E3418
:1007160033345C34FD349D34253438348134FD342F
:10072600693429343534B334FC34433430344434F6
:10073600D234DB342E342F345434F034AD342534F3
:1007460032346A34FD348934223439348134FD3408
:100756006A3425343834A734FC344D342F343A34D3
:10076600C634F534393433344534D234DD34313497
:1007760030345034E034C7342B3435345834F23402
:10078600B734263435345F34FD34AA342134393451
:100796006634FD349D341F343B346A34FD3497345B
:1007A600203438347134FC34923423343934773479
:1007B600FD349034253439347634FD349034253480
:1007C6003A347534FD34953425343C346C34FD3478
:1007D600A134223438346534FD34B0342934383405
:1007E6005E34F534BE34293438345734E634D334E1
:1007F600323435344E34D334E1343F34333449342F
:10080600B834F23454342B3443349D34FB346A34D4
:10081600263442348034FD348D341C34353462340D
:10082600F334AC341A3439345434E634D3342834FB
:1008360036344634C234F43448342A344434963494
:10084600FC347834223441347134F534AB342434F6
:100856003D345534E234E134383434344A34AB343C
:10086600F9346A34233446347934F534A7342334DE
:1008760041345734DC34E7343C3433344C349B3421
:10088600F8347E34203443346934F434C8342C3498
:100896003B345234AF34F234643425344B3474343C
:1008A600FD34B4342A343C345234B634F2345D3434
:1008B600253447347634FA34B2342A343B3453344C
:1008C600B534F7345E3424344B347134EA34BE34F0
:1008D600313438345034AA34FD3474342334463435
:1008E6005F34DD34D7343A3430344F348534F4341D
:1008F600A03421343E345634B434F23465342334CF
:100906004A346B34E234D5343A3435344C34883492
:10091600F934A33423343F345334A934FD347034CA
:1009260023344A345A34CD34E93451342B345034D8
:100936006B34E634D134383435344E347C34F434C4
:10094600B7342B343D3450349134FD349834253447
:1009560043345534A434FB348734223447345A3470
:10096600AF34F9347A34253448345E34B534F1344E
:100976006D3425344B345C34BD34EB346734203469
:100986004E345F34BF34EE34603425344F345E3435
:10099600C534EE34663427344D346034B934EB3420
:1009A600703420344F345F34B234F4347634213426
:1009B6004A345F34A834F9348C34263443345F34F3
:1009C6009334F4349F3426343E3460348134F33423
:1009D600B9343A3436345C347334DB34D334423489
:1009E600303455346E34BE34F334643428344734EA
:1009F6006434A034FD3488342F3440345F3480347A
:100A0600E734C13432343B3453347934C234F034AD
:100A160059342E3444346F349834FD349834303499
:100A26003C345C347F34DB34DC34403439344B348E
:100A360074349F34FD3475342B34353462347A344F
:100A4600DE34D2343B343534473476349B34FD348B
:100A56007F343134383464347D34D134E2344A342A
:100A66003434453473348F34F734AA343534393456
:100A760057347934AF34FD34743431343F34683408
:100A86007F34D134E234453435344A346F348634D5
:100A9600F234BE343A343B344F347A349934FA342F
:100AA6009B3431343B345C347B34A834FB347F34A0
:100AB6002E34403461347C34B334FB3472343234F3
:100AC600423465347C34BA34F534613433344334D7
:100AD60067347F34BF34F534663431344234683495
:100AE6007C34BF34F234683431343C3467347D347A
:100AF600B534F8346D342F343E345E347E34A73446
:100B0600FA3482342D34403459347E349534F334F7
:100B1600A7342F343A3453347A348734E334CC341C
:100B26003D3434344B3476348234C534EB345D345E
:100B36002D34443464347C34A134F7348D342B346E
:100B46003F3457347F348734E334CB3444343B3436
:100B560048346F347F34B234F33482342D34403425
:100B66005D347A348934DD34D134403435344B3411
:100B76006F348034A334F5348C3431343C345434FB
:100B86007B348134C734E5345B342E3445346634E3
:100B960080348D34E634C134423432344D346F34CB
:100BA6007F349D34F1349E3434343C3450347834BC
:100BB6008134AD34F0348B342A34433457347C34A6
:100BC6007E34B534F4347E34293446345834813492
:100BD6007F34B534EF347C342B34453458347D348B
:100BE6008134B034F13483342D34463456347B3476
:100BF6008234A734EB34953432343C34573476346B
:100C060084349634E834B4343E342F3454346F3458
:100C160086348D34D434D93450343034463469343F
:100C26007F348A34B334EB34873431343B345A342A
:100C3600783487349434E034C33446343934483411
:100C46006F3480348D34AB34F534823430343A34F6
:100C56005334723480348934C534DC3451343134FD
:100C66003F34653477348B349234E134B9343E34CE
:100C760039344C346B347D348C349B34EC34A034AE
:100C8600383438344F34713483348C34A434E834F3
:100C96009A34393437345434743480348C349F3431
:100CA600E834A234373439345034733480348B34D6
:100CB6009934DF34B834423432344E346F347C34B1
:100CC6008C348F34CC34D5345A343034443465348F
:100CD60078348B348B34AC34E534883435343A3458
:100CE6005634733484348C348F34D234C73453340A
:100CF6003034493467347B3487348D34A234E0345D
:100D0600A334383437344B3472347F348B348A34DA
:100D1600B034E034803430343D3455347634823463
:100D26008A348C34B534DD3478342D343C3458343C
:100D360077347F348A348E34AE34DD3484342F34C1
:100D46003D345534733480348B348A34A134DD34E5
:100D56009C34373437344C346D3480348934903491
:100D66009334CD34C3345434313442346334793417
:100D760085348D348A34A534D9349A3435343934AB
:100D860051346C347E3486348C348F34B634D33458
:100D9600763430343A345C3473347F348A3487346E
:100DA6008E34B834D0346D342F343F345C347234DE
:100DB600833489348B348F34B334D3347634323439
:100DC6003E34573473348134873487348C34A134B9
:100DD600D1349B343B34373451346E347B348534D0
:100DE6008A348F349034BB34C7346834303440345A
:100DF6005F347534843487348A348E349734C534FA
:100E0600B73453342E34463463347A3484348B34D2
:100E16008B348C349334C534B13452343034463444
:100E260062347934833489348B348B348F34B534DB
:100E3600C3346B3435343B345B34753484348C348E
:100E46008D348C3486349C34C434A63449343134DD
:100E56004C3468347C3485348C348D348A3489340B
:100E6600A034C93492343D343234493465347A344A
:100E7600843489348A34863484349634C434A03431
:100E8600493431344A3465347B34853489348C347E
:100E9600893487348734AD34C134773434343B34C1
:100EA6005634713481348B348C348B3489348634A3
:100EB6008A34B234BD346C3435343D345C347334E6
:100EC60083348A348B348B34853487348B34A13421
:100ED600BD348C343F34383450346A347E348834EC
:100EE6008A348C348A34873484348934A934BB34C4
:100EF6007B3437343C34593472347D348A34883404
:100F06008B348A34853485348234A134BA349034AF
:100F1600443435344E3468347C3486348B348C34E3
:100F26008A348634863480348534A334B7347F34A7
:100F36003E34393452346C348034873489348B34BB
:100F460089348634863482347F349334B234A6347A
:100F560057343234443461347834843489348A34AE
:100F66008B3484348734803480347F348A34AD348F
:100F7600AA346B34373440345A34743482348A3465
:100F86008B348A348A348434833481347F347D3498
:100F96008B34AC34A9346B343B343D345A3472341C
:100FA600803487348B348834883484347F34823474
:100FB6007C3480347D348E34AC34A3346A34383493
:100FC6003F345A34723482348A34883488348934CB
:100FD600823481347F34813481347C348234903459
:100FE600A634A4346B343E343D34593472347F34E1
:100FF60089348B34893488348634823483347F341C
:101006007E347E347F347E348A34A134A9348634E7
:101016004B343C344E3469347C3484348A348A34D8
:101026008C34863483348034813480347C347F3409
:101036007F347C347E348C349E34A63481344C34F4
:101046003C344D3469347A3485348A34893487346F
:1010560086348334823482347D3480347F347E34E3
:101066007D347E3480347F348F349C34A33486348C
:1010760051343D3447346634773482348B348C347F
:101086008A34843480347F347E347C347F347D34B7
:101096007A347E347B347E347D347B347C348234C3
:1010A60090349B349A34793450343D344E3467341A
:1010B600793484348A348C348C348834883480345B
:1010C60080347F347F3480347D3480347C347F3484
:1010D6007E347C347D347F347E347D347F34893471
:1010E6009634983492346E3452343F3450346934E2
:1010F6007C3488348A348C34873489348434853417
:1011060081347F3482347E3481347E347C347F343F
:1011160080347F347E347F347C347C347C347B343E
:101126007E347E347F347D3481348B3492349034F3
:101136008A346E34573447344C34633474348534CB
:101146008A348D3487348A3484348A34A6347834A5
:10115600633478346B34A1347334723473348D341D
:101166008D3466347C347934A13463347E346D3402
:101176009A3478346F3477348434903463347D34DD
:101186007034A13466347D3469349A3479346D34DC
:1011960075348234933466347E3470349A346F34C2
:1011A6007C346E348C3482347334763476349434AE
:1011B600753479346C3488348B34733473347734BF
:1011C6009534783471346E348E3488346A34753498
:1011D600783496346C347A3470348C348334703486
:1011E600793470349834763477346C348E348D3464
:1011F6006934763474349734733474347634813481
:101206008E346F347B346D34963484347334703456
:10121600813496346C347A3472348B348734763431
:1012260074347234993479347334733484348E3428
:101236006E347D346D348F34883473347634783438
:1012460098347234763474347F3493347634763406
:101256006E349234873469347B34763493347D34F7
:10126600743473347E349A346B34783473348534FE
:101276008F3477347634723492347F3470347C34DD
:10128600743492348334713477347E3491347434C4
:1012960079347134833499346E34773471347F34CD
:1012A6008A347134713472348C3480346F347634C9
:1012B6007134953480346B34793474349334823495
:1012C60071347634793490347C3478346F347F34A6
:1012D600923472347A3474347F349534703475347D
:1012E60076347F34973474347434773480348D3460
:1012F6007B347434753484348B3474347534753477
:1013060087348A3475347B346E3488348934723445
:101316007C34723485348D3472347C347334843442
:101326008F346E347D347434813491346F347C342C
:1013360074347F34943471347B3475347D34913411
:101346007434783479347A34903479347734773421
:1013560078348E347C347A347734763488348134F5
:101366007534733476348634893476347534773408
:101376007C348E347C3474347934773492347C34CF
:1013860072347934733492347C34713478347834EA
:101396008C347F347A34753475347F348B347E34B0
:1013A60073347B34763491347E3472347F347434BF
:1013B6008F347F3475347A34763482348B347A348D
:1013C60074347A34763491347A34753479347734A3
:1013D600863482347C347434783479349434773473
:1013E6007334773478348A347F3477347634783487
:1013F6007D3491347134783475347B3488347F3459
:1014060078347834743481348D3471347B34773461
:101416007C34873482347334793474348434883435
:1014260079347934793479348634893473347B3435
:1014360079347D348A34833474347834793484341A
:10144600833476347C3479347B348A347F3475340F
:101456007D3478347F348C347C3474347D347A34FF
:10146600843489347A3478347C347B3484348234DA
:10147600753478347B347F348934813476347A34E5
:101486007C347F3488347B3479347D347C348234C4
:1014960086347D3474347B347D34843485347934B5
:1014A60079347D347A348634863478347A347D34AB
:1014B6007A34873485347234743476347A348734A3
:1014C6007C3471347C3476347D3487347A347834A1
:1014D6007B347734803482347B3479347B347A3489
:1014E6007F3484347F3479347A347C347F34863460
:1014F6007F3476347E347B347E3483347C34793462
:101506007C347E347F348234813478347B347D3449
:101516007B3486347D3479347C347D347F34803436
:1015260084347B3479347D347C3483348234783427
:101536007C347B347F347E3483347F3478347D341A
:101546007A347F3486347B347C347A347E347B340C
:101556008434813476347D3478347F347E348434F4
:101566007C347B347A347E347E3481347D347A34F0
:101576007C347C347C34803481347A347C347834E2
:101586007F347E34843477347B3478347F347D34CE
:1015960082347F3478347E3479347F347D348434B5
:1015A60079347D3477347E347D3481347F347934B4
:1015B6007D34793479347C3484347B347B347834A8
:1015C6007E347C347F3484347D347A347A347D348A
:1015D6007A347F34823400348234803480347F34E9
:1015E6007F34843487347F34813483348334813444
:1015F600803483347F348134803485347A345F3464
:101606003D3421340D340B341A3431344F346B34B9
:1016160084349D34BC34D234E534F034FB34FD34A8
:10162600FC34FD34FD34FC34FB34F434E834DD346E
:10163600D134C534BA34A93499348B347D347834F2
:101646006B345F3450344A3441343A343B34483492
:10165600593458345F345B344C3439342A341834B2
:1016660004340034003400340034003400340034D0
:1016760000340034003400340034003400340034C4
:1016860001340E341F34313441344F3461347334F1
:101696007E3489349D34AC34BF34CE34D934E53409
:1016A600F134FD34FC34FD34FC34FD34FC34FC34BC
:1016B600FD34FC34FD34FC34FD34FC34FD34FC34A0
:1016C600FD34FC34FD34FC34FD34FC34FD34FC3490
:1016D600FD34FC34FD34FC34EF34E334DF34D834E9
:1016E600C734BE34A734823462343D3429341F34BF
:1016F60022342D343C345134623470347B34873494
:101706008C3498349F34A034A3349934943491346F
:1017160087347E347B3470346534543448343934F9
:101726002A3420340F3401340034003400340034B9
:101736000034003400340034003400340034003403
:1017460000340034003400340034003400340034F3
:1017560000340034003400340034003400340034E3
:1017660000340034003400340034003404341734B8
:101776002B3444345A34743484349B34AC34BC34FF
:10178600D434E634F934FC34FD34FC34FD34FD3411
:10179600FC34FD34FC34FD34FC34FD34FC34FD34BF
:1017A600FC34FD34FC34FD34FC34FD34FC34FC34B0
:1017B600FD34FC34FD34FC34FD34FC34FD34FC349F
:1017C600FD34FC34FD34FC34FD34F834DB34B234FF
:1017D6008D347234623463346D34793483349434A2
:1017E600A834B834C634CB34D834DC34E134DE34EF
:1017F600DE34D634CF34CB34BD34B434A23494344E
:1018060083347A3466345A344D343D342D341B34A3
:101816001534023400340034003400340034023409
:101826000834033400340034003400340034003407
:101836000034003400340034003400340034003402
:1018460000340034003400340034003400340034F2
:1018560000340034003408341934303443345234FC
:101866006B347D348C349A34AF34C034CF34D934AD
:10187600EC34FA34FC34FD34FC34FD34FC34FD34F1
:10188600FC34FD34FC34FD34FC34FD34FC34FD34CE
:10189600FC34FD34FC34FC34FD34FD34FC34FD34BE
:1018A600FC34FD34FC34FD34F934F134E834DC34F2
:1018B600D334C2349C347C345E34473441344034AF
:1018C6004D345D346C347C348B349934AA34B8345A
:1018D600BF34C334C434C434C234BE34B134A8347F
:1018E600A134933483347D347134633453344034B7
:1018F60033342134163409340034003400340034CF
:10190600003400340034003401340234013400342D
:101916000034003400340034003400340034003421
:101926000034003400340034003400340034003411
:101936000034003400340034003408341F343134A9
:1019460047345C346C347E348E34A734B734C634B2
:10195600DB34EC34FA34FD34FC34FD34FC34FD3431
:10196600FC34FC34FD34FC34FD34FC34FD34FC34EE
:10197600FD34FC34FD34FC34FD34FC34FD34FC34DD
:10198600FD34FC34FD34FC34FC34FD34FC34FD34CD
:10199600FC34FD34FA34F834E534CF34A2348334DD
:1019A600683452345534523465347734823496343C
:1019B600A934B434C834CE34D534D834DE34D6342D
:1019C600CB34C234B534AE349D34943484347E344E
:1019D6006E345B344F3441342E342234163404349E
:1019E600003400340034003400340034003405344C
:1019F6000A340B340234003400340034003400342A
:101A06000034003400340034003400340034003430
:101A16000034003400340034003400340034003420
:101A26000234143429343F345134653478348834DC
:101A36009C34AB34BC34D134DF34F034FC34FD3464
:101A4600FC34FD34FD34FC34FD34FC34FD34FC340C
:101A5600FD34FD34FD34FC34FD34FC34FD34FC34FB
:101A6600FD34FC34FD34FC34FD34FC34FD34FC34EC
:101A7600FD34FC34FD34FD34FA34F234E734DD341D
:101A8600D634CD34C134B834B034A9349E3493340A
:101A96008C3484347E347F34793471346A346234DD
:101AA6005A3452344B344C34463440343C34393452
:101AB60032342A34283422342934203421341D3453
:101AC6001A341C341B341934183418341B341F349C
:101AD6001A341C34203424341F3424341F3425345F
:101AE600273427342A342B342C342F3437343734E4
:101AF60038343A3442344234443448344D344E3423
:101B06004E34523456345A3464346434653468344A
:101B16006A346F34723473347834763476347F347E
:101B26007D348334803480348534863486348F34EF
:101B360089348E3494349434973496349B34983460
:101B46009D349B34A134A634A234A134AB34A834DA
:101B5600A734A834A734A834A734AB34AA34AD3498
:101B6600AD34AD34AB34AE34AB34AA34A634AB3476
:101B7600A734A934AC34A634AA34AA34A634A23481
:101B8600A134A134A234A134A234A134A3349C34A8
:101B96009C349A349A3494349534973497349234E6
:101BA6008D3493348C348E348934933492348D341A
:101BB6008D3400347E34803482347F3481347434FE
:101BC60056343A341E340F34103422343E345634EC
:101BD60072348C34A134BD34D334E334EE34F73468
:101BE600FD34FC34FD34FD34FA34F434EE34E1349F
:101BF600D634CA34BF34B034A13496348A347F34F0
:101C0600733469345B344D3447343C3436344234AF
:101C16004D3459345E3459345534433433342234D4
:101C26000E34003400340034003400340034003400
:101C360000340034003400340034003400340034FE
:101C460000340F34213430343C3451346634733428
:101C56007D348D349A34A934BB34C734D734E33455
:101C6600F234FA34FD34FC34FD34FC34FD34FC34F7
:101C7600FC34FD34FC34FD34FC34FD34FC34FD34DA
:101C8600FC34FD34FC34FD34FC34FD34FC34FD34CA
:101C9600FC34FC34FD34F734EC34E934E034CF342E
:101CA600CA34BF34B634AE34A8349B3495348A343F
:101CB6007F347D3479347434683465345C34573415
:101CC600503448343F343D3437342C3420341B34BC
:101CD6001834153416340F3411340D340D340734DA
:101CE6000C34093407340834013405340834063416
:101CF600003400340034003400340034003400343E
:101D060000340134183435344F3469347D34883422
:101D16009634A334AA34B434BD34B834B934B634A2
:101D2600B534AB34A734A3349A34923481347F3437
:101D36007A34763469345E345A344F344434483411
:101D46005434653474347B347C3474346D34633485
:101D560051344334323423341D3417340B340834AD
:101D660002340134053405340F3414341E34273458
:101D7600333444345334633473347E3491349C3472
:101D8600AE34BD34CB34DF34E634F934FC34FD34C0
:101D9600FC34FD34FC34FC34FD34FC34FD34FC34BA
:101DA600FD34FC34FD34FC34FD34FC34FD34FC34A9
:101DB600FD34FC34FD34FC34FD34FC34FD34FC3499
:101DC600FD34FC34FD34FC34FD34FC34FC34F53491
:101DD600E934DD34D234CC34C034BA34AC34A03433
:101DE60098348A3481347C3476346C346034583494
:101DF6005034493440343B3438342D342A34213479
:101E06001B34193414340B340734023400340034D0
:101E1600003400340034003400340034003400341C
:101E2600003400340034003400340034003400340C
:101E360000340034003400340034133430344A346F
:101E460060346F347E347F3487348F3494349734DF
:101E560095348F348D3486347F347D3475346E34C6
:101E660065345E3456344F3446343F3433342D347F
:101E76002A3429343534453459345F3462345D3478
:101E8600533443343334233418340B34003400349D
:101E9600003400340034003400340034003401349B
:101EA6000C34183425343534493454346834793490
:101EB60081349234A634B734C634DC34EA34F6348A
:101EC600FD34FC34FD34FC34FD34FD34FC34FD3487
:101ED600FC34FD34FC34FD34FC34FD34FC34FD3478
:101EE600FC34FD34FC34FD34FC34FD34FC34FD3468
:101EF600FC34FD34FC34FC34FD34FC34FD34FC3459
:101F0600FB34F434EC34E434D834CE34C934BD3440
:101F1600B234A9349E3494348F3488347F347B347D
:101F26006F3468346634593451344E3446343E3452
:101F3600373433342C34293423341D341B341634CB
:101F4600123410340E3406340834083403340234A0
:101F560000340034003400340034003400340134DA
:101F660000340434043407340B340B341134103485
:101F760013341A341B341B342734263428343234B1
:101F86003434303437343C343E34433447344C34C0
:101F96004E345934593456345E34653469346D34AC
:101FA60071347A3474347C347F347E3481347F34B3
:101FB60088348E348B348B34913490349234973405
:101FC600963498349D349F34A534A434A734A83469
:101FD600A834AD34B034AE34AD34AD34B034B434EA
:101FE600B134B434B434B834B834B634B534B734A0
:101FF600B834BA34B734BC34B834B634B934B93476
:10200600B734AE34B434B134B634B434B134AC3499
:10201600AE34AA34AE34AA34A434A934A734AB34CB
:10202600A634A9349F34A134A134A3349D349C34FE
:102036009B349934993496349734973492348D344A
:1020460092348D348A348C348534833487348234A4
:1020560087348234803480347E347E347F347E34D8
:102066007F347E347F347E347F347D3479347C34DF
:102076007C347B347D3477347234763475347534FD
:102086006E3474346D3470346F346E347134683435
:102096006E346A346A346B346A3467346834643450
:1020A600653464346534643466346C346A346E344E
:1020B600673468346334683467346334683463344B
:1020C60069346B346B3468346B346D3469346B3417
:1020D6006C346F34713472346F34713471347134DA
:1020E6006F346E34703470347334723477347334BE
:1020F6007534753478347634723477347534743490
:102106006E3471347134733477347834743477348C
:10211600743477347D347B347F347B347C347F3441
:102126007E347F347F347E347F347E347F34813412
:10213600803483347E34803483347F3488348634E8
:102146008634853489348C3482348C348A348434AD
:10215600893488348D3487348E348A348C348C3484
:102166008A348E3487348C348A348E3489348A3473
:102176008B348B348B348B348A348C348D348B345F
:102186008B348834883489348B348B348D340034E2
:102196007F347B3462344334293411340B3419349C
:1021A6002F34483466347E349534AE34C134D53455
:1021B600E234F434FA34FA34FD34F934FA34F334CC
:1021C600EA34E234D334CD34BC34B434A73497344F
:1021D6008A347E347A346A345E34533446343C343A
:1021E60033343D34483451345B345D3459344A34E5
:1021F60042342E341D3409340034003400340034A3
:102206000034003400340034003400340034003428
:102216000034003401340B34173429343A3445344D
:1022260058346C347A3486349734A634B334BE3496
:10223600D034DE34EA34F634FC34FC34FD34FC3479
:10224600FD34FC34FD34FD34FC34FD34FC34FD3403
:10225600FC34FD34FC34FD34FC34FD34FC34FD34F4
:10226600FC34FD34FC34FD34FA34F234EB34DE3421
:10227600D734D134C434BF34B534AF34A634A034E3
:1022860094348A348B3480347E34773471346B34AE
:1022960062345C3456344E344A3440343D34393436
:1022A600353430342934273422341E341A34173462
:1022B6000834003400340034003400340034003470
:1022C6000034003404341D34353449345A34683407
:1022D60073347F3482348634853488348834853444
:1022E60083347D347C347034713467345A345834D2
:1022F6004E3446343E343A34303426342034233493
:102306003034433450345B345C3456344F344134C7
:1023160038342A3419340E3402340034003400348C
:1023260000340034003400340034083413342134CB
:102336002D343A344A345D3470347C3487349934DD
:10234600AC34BC34CB34DB34EB34F934FD34FC34FC
:10235600FD34FC34FD34FC34FD34FC34FD34FC34F3
:10236600FD34FC34FD34FC34FC34FD34FC34FD34E3
:10237600FC34FD34FC34FD34FC34FD34FC34FD34D3
:10238600FC34FD34FC34FD34FC34FD34FC34FD34C3
:10239600F934EE34E234D834D434C734C134B534E5
:1023A600AE34A33495348F3486347F347734733423
:1023B6006B345F345E345034473449343934353401
:1023C6003034283420341934193415340B3400349D
:1023D6000034003400340034003400340034003457
:1023E6000034023419342E34423455345D346534A5
:1023F6007134753479347C347934743471346A3494
:1024060062345A34533449343D3435342F34283405
:102416001D3417340E3407340034013400341234BA
:1024260020342B3433342F342C341F3415340534F4
:1024360000340034003400340034003400340034F6
:1024460000340034003400340034003404341234D0
:102456001E342F343E345334643476348434963404
:10246600A834B834C934DB34E934F934FD34FC34E7
:10247600FD34FC34FD34FC34FD34FC34FD34FC34D2
:10248600FD34FC34FD34FC34FD34FC34FD34FC34C2
:10249600FC34FD34FC34FD34FC34FD34FC34FD34B2
:1024A600FC34FD34FD34FC34FD34FC34FC34F034AF
:1024B600E634E034D734CA34C234BB34B234AF3431
:1024C600A3349B348E3486347F34823478346D342E
:1024D6006D3460345534493441343B343834333404
:1024E60030342B34293420341A340E34003400347A
:1024F60000340034003400340034003400340B342B
:1025060021343C345134653478347E348034843418
:1025160089348B348B348B34883481347E347434F0
:10252600713465345B3454344F3443343534303489
:10253600263420341534173413341E342E343A34EA
:1025460041343F34453438342F3426341534073477
:1025560000340034003400340034003400340034D5
:102566000034003400340034083415342534323451
:10257600433458346A347C3483349534A934BD34B6
:10258600CD34D834E634F634FD34FC34FD34FC3432
:10259600FD34FC34FD34FC34FD34FC34FD34FC34B1
:1025A600FD34FC34FD34FC34FD34FC34FD34FC34A1
:1025B600FD34FC34FD34FC34FD34FC34FD34FC3491
:1025C600FD34FC34FD34FA34F334EB34DF34D534E3
:1025D600CB34BE34B634B134A3349C3493348D3406
:1025E60080347F34793471346B3460345E345334E0
:1025F60050344C3446343934363431342A34283461
:102606001F341D341534173412340C3412340C3480
:102616000F340B34083406340B340A3408340C34C3
:10262600023409340E340A340B340A3410341034AC
:1026360011341A3414341B341E3420342034233419
:1026460028342B3433343134343438343C343F3446
:10265600443447344C344F34543456345E345F3447
:10266600613468346B3472346E34743477347D3448
:102676007E3480347F348334863486348D34893492
:10268600903494349C34963497349C349C349C34E3
:102696009D34A134A534A934A434A934A634AB346A
:1026A600A534A734AC34AD34AD34AC34B034AC342A
:1026B600AF34AE34AD34AD34B034AB34AD34AC3409
:1026C600B034B334B334AF34AD34AF34AC34AD34EA
:1026D600AE34AE34AA34B034AD34A534AD34AD34F2
:1026E600A434A734A834A834A134A234A0349A342C
:1026F6009434963496348B3493348D3491349034A8
:1027060088348B348B348B348B34893481348434E1
:102716008534863483347F3484347E348034803404
:1027260080348034803480347E347F347E347E340A
:102736007F347E347E347F347E347B347C347B3409
:102746007A34773475347634723479347534773430
:102756007134703473346C3471346F347034703453
:102766006E346D3471346F34703400349B3183238E
:1027760093319B31282393319B310E2393319B3127
:102786001B2393319B31412393319B310A23933190
:102796009B316C2308000310530D540DD5005508CA
:1027A600DB005B08031DE02B0030D4000030D300B3
:1027B6000030D2000030D10008005108D500520880
:1027C600D6005308D7005408D8001F30D836D70C87
:1027D600D60CD50C890BE92B5508D9005908DA0017
:1027E600D317FF30D105FF30D205FF30D3050030B7
:1027F600D4059630DB02DB1F132C5B08803A973E2C
:10280600031CD72B0130D436D30CD20CD10C890B38
:10281600062C0130D5005508DB070319242C052C9E
:1028260020305B020318D72B5B080319242C0130D8
:10283600D135D20DD30DD40D890B1B2C0130DB0203
:10284600172C5A0803190800D109D209D309D4094B
:10285600D10A0319D20A0319D30A0319D40A0800A4
:102866009B31072394319B3121239431003A03197C
:10287600362C44302000BA006D30B9004030B80024
:102886000030B7009B31382394312708DC00280834
:10289600DD00DE01DF015F08AC005E08AB005D080D
:1028A600AA005C08A90000309D310E2594312C0841
:1028B600BE002B08BD002A08BC002908BB009E31BB
:1028C600872694313A08E3003908E2003808E10027
:1028D6003708E00022008C120E162100A001A1018B
:1028E6002108850020088400313084078030853D2A
:1028F60000082000DC00DD01DE01DF015F08AC001E
:102906005E08AB005D08AA005C08A90001309D3195
:102916000E2594312C08BE002B08BD002A08BC00E9
:102926002908BB006308BA006208B9006108B8004C
:102936006008B7009531E82594313A08D400390883
:10294600D3003808D2003708D1009331CE23943112
:1029560051089B3116239431A630890BB02C0032D6
:1029660001302100A0070030A13D0A302102BE300F
:1029760003192002031C732C22008C160E1207303A
:102986002000DD006530DC005630890BC82CDC0BDE
:10299600C82CDD0BC82C000022008C120E1621005C
:1029A600A201A3012308850022088400CB308407F6
:1029B6009030853D00082000DC00DD01DE01DF01EE
:1029C6005F08AC005E08AB005D08AA005C08A900C1
:1029D60001309D310E2594312C08BE002B08BD0018
:1029E6002A08BC002908BB006308BA006208B900BF
:1029F6006108B8006008B7009531E82594313A08B7
:102A0600D4003908D3003808D2003708D1009331F2
:102A1600CE23943151089B3116239431A630890B6D
:102A2600122D003201302100A2070030A33D0230F2
:102A36002302EE3003192202031CD52C22008C1629
:102A46000E1206302000DD002830DC007530890BC0
:102A56002A2DDC0B2A2DDD0B2A2D22008C120E16B8
:102A66002100A401A5012508850024088400DD3085
:102A760084078D30853D00082000DC00DD01DE0185
:102A8600DF015F08AC005E08AB005D08AA005C08C9
:102A9600A90001309D310E2594312C08BE002B086B
:102AA600BD002A08BC002908BB006308BA006208FA
:102AB600B9006108B8006008B7009531E82594317F
:102AC6003A08D4003908D3003808D2003708D100B4
:102AD6009331CE23943151089B3116239431A6307D
:102AE600890B732D003201302100A4070030A53D6B
:102AF60002302502EE3003192402031C362D220073
:102B06008C160E1206302000DD003D30DC003C3015
:102B1600890B8B2DDC0B8B2DDD0B8B2D0000220002
:102B26008C120E162100A601A7012708850026088B
:102B36008400EF3084078A30853D00082000DC00E1
:102B4600DD01DE01DF015F08AC005E08AB005D0859
:102B5600AA005C08A90001309D310E2594312C088D
:102B6600BE002B08BD002A08BC002908BB0063086C
:102B7600BA006208B9006108B8006008B70095316C
:102B8600E82594313A08D4003908D3003808D20031
:102B96003708D1009331CE23943151089B31162347
:102BA6009431A630890BD52D003201302100A607BD
:102BB6000030A73D02302702EE3003192602031C1F
:102BC600982D22008C160E1208003A088039BF0094
:102BD6003F08C4003A35BF003F08C600B91B46147B
:102BE60046080319032E460A031D012E0030BA00BB
:102BF6000030B9000030B8000030B700B9170B2E0E
:102C06000030BA000030B9000030B8000030B7001C
:102C16003E088039BF003F08C4063E35BF003F0866
:102C2600C500BD1B451445080319262E450A031D7C
:102C3600242E0030BE000030BD000030BC00003045
:102C4600BB00BD172E2E0030BE000030BD00003088
:102C5600BC000030BB004508031D4608031D3C2E82
:102C66000030BA000030B9000030B8000030B700BC
:102C760008003708BF003F08A7003D089B31A22384
:102C860095312808D0002708CF004F08BF00C001A3
:102C9600C101C2014208CA004108C9004008C80073
:102CA6003F08C7005008BF00C001C101C201420869
:102CB600CE004108CD004008CC003F08CB003808C4
:102CC600BF003F08A7003C089B31A2239531280886
:102CD600D0002708CF004F08BF00C001C101C201C4
:102CE6003F08C7074008C83D4108C93D4208CA3DDC
:102CF6005008BF00C001C101C2013F08CB07400810
:102D0600CC3D4108CD3D4208CE3D3908BF003F08C5
:102D1600A7003B089B31A22395312808D00027083D
:102D2600CF004F08BF00C001C101C2013F08C7075D
:102D36004008C83D4108C93D4208CA3D5008BF0089
:102D4600C001C101C2013F08CB074008CC3D410884
:102D5600CD3D4208CE3D0830C735C80DC90DCA0D58
:102D6600890BAF2E3808BF003F08A7003B089B31F0
:102D7600A22395312808D0002708CF004F08C7079F
:102D86005008C83D0030C93DCA3D3708BF003F085E
:102D9600A7003C089B31A22395312808D0002708BC
:102DA600CF004F08C7075008C83D0030C93DCA3D8F
:102DB6000830C735C80DC90DCA0D890BDC2E37087A
:102DC600BF003F08A7003B089B31A2239531280886
:102DD600D0002708CF004F08C7075008C83D00306D
:102DE600C93DCA3D3808BF003F08A7003D089B31D2
:102DF600A22395312808D0002708CF004F08CB071B
:102E06005008CC3D0030CD3DCE3D3908BF003F08CF
:102E1600A7003C089B31A22395312808D00027083B
:102E2600CF004F08CB075008CC3D0030CD3DCE3DFE
:102E36003908BF003F08A7003D089B31A223953102
:102E46002808D0002708CF004F08BF005008C00050
:102E5600C101C2010830BF35C00DC10DC20D890BBD
:102E66002E2F3F08CB074008CC3D4108CD3D4208F8
:102E7600CE3D4A08BF00C001C101C2013F08CB07D1
:102E86004008CC3D4108CD3D4208CE3D0830C7350F
:102E9600C80DC90DCA0D890B4A2F46084507BF0044
:102EA600C001C00D3F08823ECF00FF30403DD0003C
:102EB600CD1B722F0130CB35CC0DCD0DCE0D890B30
:102EC6005E2FCA1B4B140130C735C80DC90DCA0D7C
:102ED600890B672FFF30CF07FF30D03D5B2FC50131
:102EE600CA1F8B2FFF304705BF00FF304805C000C3
:102EF600FF304905C1007F304A05C200420841043F
:102F060040043F0403194B18892F8B2FC501C50AAE
:102F160045080319B42F0130CB070030CC3D0030F3
:102F2600CD3D0030CE3D4E1CB42F4B08BF004C08A3
:102F3600C0004D08C1004E08C2000130C300C237B0
:102F4600C10CC00CBF0CC30BA22F4208CE00410817
:102F5600CD004008CC003F08CB000130CF07003041
:102F6600D03D5008803ABF0080303F02031DBD2F80
:102F7600FF304F02031CC92F7F302000CE00803067
:102F8600CD000030CC000030CB00F32F20005008DD
:102F9600803ABF0080303F02031DD32F01304F021D
:102FA6000318E02F00302000CE000030CD000030A6
:102FB600CC000030CB00C401F32F20004F08BF0027
:102FC6003F08C600FF30CB05FF30CC057F30CD056E
:102FD6000030CE054618CD174636BF003F08CE0056
:102FE6004408BF003F08CE044E08BA004D08B90099
:0A2FF6004C08B8004B08B7000800B3
:10360E0021009D140800D2302A00950008001630C3
:10361E002100970008000134003400340034A70064
:10362E0027082200990008008030220098003330CD
:10363E0099000800031021009D1C03140030093D61
:10364E0008007A30210099009A0198012200960113
:10365E00080028082100B300200027082100B2002E
:10366E00080021001C082000A80021001B082000D3
:10367E00A7000800E03021009E0030309F009B0123
:10368E009C010D309D0008002100320833040319FF
:10369E00080033088A0032080A009B3108000B111B
:1036AE0021003408200095000130E4070030E53D8C
:1036BE0000306502323003196402031C08009B318E
:1036CE004B232000E401E501080021001508C03954
:1036DE00173895006430200095006430A900290841
:1036EE002100B4000B118B1603302000A700003010
:1036FE00A8009B313023080022008C018E0113306C
:10370E0021008C008E01083023008E0010308C00BA
:10371E0024008C018E012100951725008C018E014D
:10372E00373026008C003F308E003F3027008C0053
:10373E003F308E000800AF00AB01AC012708A90096
:10374E00AA012908AD002A08AE002F1CB22B2D08A5
:10375E00AB072E08AC3D0130AD35AE0D890BB32B4A
:10376E000310AF0C2F08031DAC2B2C08A8002B0840
:10377E00A70008000030FB000030FA000030F9000E
:10378E000030F800701CD32B7408F8077508F93D4B
:10379E007608FA3D7708FB3D0130F435F50DF60D50
:1037AE00F70D890BD42B0130F336F20CF10CF00C23
:1037BE00890BDB2B7308720471047004031DC92B73
:1037CE007B08F3007A08F2007908F1007808F0001F
:1037DE0008000030B2000030B1000030B000003000
:1037EE00AF00271C022C2B08AF072C08B03D2D086C
:1037FE00B13D2E08B23D0130AB35AC0DAD0DAE0D69
:10380E00890B032C0130AA36A90CA80CA70C890B26
:10381E000A2C2A08290428042704031DF82B320831
:10382E00AA003108A9003008A8002F08A700080038
:10383E003108F3003008F2002F08F1002E08F000D6
:10384E004130F700C630F6004E30F5006D30F40012
:10385E009B31C1239C317308B1007208B00071080E
:10386E00AF007008AE003930AE073030AF3D0030DB
:10387E00B03D0030B13D2E082000A00021002F08E1
:10388E002000A100210030082000A20021003108F4
:10389E002000A3001030A400A337A20CA10CA00C92
:1038AE00A40B532CFF302005FC007F302105FD00BA
:1038BE000800210031082000AA0021003008200055
:1038CE00A90021002F082000A80021002E082000AA
:1038DE00A7004130AE00C630AD004E30AC006D30AA
:1038EE00AB009B31F0239C312A082100B10020004F
:1038FE0029082100B000200028082100AF00200078
:10390E0027082100AE003930AE073030AF3D003011
:10391E00B03D0030B13D2E082000B50021002F082B
:10392E002000B600210030082000B7002100310829
:10393E002000B8001030B900B837B70CB60CB50C73
:10394E00B90BA32CFF303505B3007F303605B4001C
:10395E0008009C311F249C317D082100AD007C089D
:10396E00AC002D08803A2000A50083302502031DEF
:10397E00C32CD73021002C020318DF2C013020007D
:10398E00A5002508E706DF2C22000C110E100E15DF
:10399E00F62C22000E118E100C15F62C22000C1196
:1039AE000E108E14F62C22008E100E110E14F62C04
:1039BE0020006608A500A6012608003A0319E82C87
:1039CE00F62C2508003A0319CB2C013A0319D02CFA
:1039DE00033A0319D52C013A0319DA2CF62C2000E0
:1039EE006708031D042D0130A5002508E6070430E5
:1039FE006606031D0800E60108000130E602660AAD
:103A0E00031D08000330A5002508E6000800B100DC
:103A1E003108031DAC1F232D2909B3002A09B40058
:103A2E002B09B5002C09B600B30A0319B40A031901
:103A3E00B50A0319B60A2B2D2C08B6002B08B500B3
:103A4E002A08B4002908B3002C082B042A042904E0
:103A5E00031D3A2D0030AC000030AB000030AA0040
:103A6E000030A90008009630AD002D08B200FE30DF
:103A7E0036050319612D0130AD002D08B207013056
:103A8E00B636B50CB40CB30C890B472D3E2D013058
:103A9E00AD002D08B2070130B3070030B43D003041
:103AAE00B53D0030B63D0130B636B50CB40CB30C96
:103ABE00890B5B2DFF3036050319732D4E2D023009
:103ACE003202031C752D0130B2020130B335B40D34
:103ADE00B50DB60D890B6D2DB51F662D32187F2DC8
:103AEE00FF30B305FF30B4057F30B505FF30B605A6
:103AFE000310B20C3208AD00AE01AF01B0011830A8
:103B0E00AD35AE0DAF0DB00D890B872D2D08B3045D
:103B1E002E08B4042F08B5043008B6043108031D6E
:103B2E00AC1F9A2DB6173608AC003508AB0034081A
:103B3E00AA003308A90008009331B9239D31B03093
:103B4E002000A7001C30A8009B3130239D318B171D
:103B5E0022008C160B302100A9002630A8005D3003
:103B6E00890BB72DA80BB72DA90BB72D003222004C
:103B7E008C120B302100A9002630A8005D30890B75
:103B8E00C62DA80BC62DA90BC62D003222008C16F1
:103B9E000B302100A9002630A8005D30890BD52DF1
:103BAE00A80BD52DA90BD52D003222008C120B306F
:103BBE002100A9002630A8005D30890BE42DA80B4A
:103BCE00E42DA90BE42D003222008C160B302100BF
:103BDE00A9002630A8005D30890BF32DA80BF32D1C
:103BEE00A90BF32D003222008C120B302100A900FC
:103BFE002630A8005D30890B022EA80B022EA90BD1
:103C0E00022E003222008C169C3160249D31340825
:103C1E002100AD00200033082100AC002D08803AB1
:103C2E00A800A6302802031D1E2E66302C02031893
:103C3E00232E943133249D31F4302100A90082309B
:103C4E00A8000530890B292EA80B292EA90B292E89
:103C5E0022000E120B302100A9002630A8005D3084
:103C6E00890B372EA80B372EA90B372E00322200C8
:103C7E000E16F4302100A9008230A8000530890B01
:103C8E00462EA80B462EA90B462E22000E120B30E6
:103C9E002100A9002630A8005D30890B542EA80BF8
:103CAE00542EA90B542E003222000E16F430210091
:103CBE00A9008230A8000530890B632EA80B632E55
:103CCE00A90B632E22000E120B302100A900263004
:103CDE00A8005D30890B712EA80B712EA90B712EC9
:103CEE00003222000E16F4302100A9008230A80006
:103CFE000530890B802EA80B802EA90B802E0B2E43
:103D0E003E088039BF003F08C8003E35BF003F085F
:103D1E00CF00BD1B4F144F080319A32E4F0A031DCE
:103D2E00A02E0030BE000030BD000030BC000030C0
:103D3E00BB00BD17BE01AB2E0030BE000030BD0073
:103D4E000030BC000030BB003A088039BF003F088D
:103D5E00C8063A35BF003F08D000B91B50145008B2
:103D6E000319C72E500A031DC42E0030BA000030AE
:103D7E00B9000030B8000030B700B917BA01CF2E25
:103D8E000030BA000030B9000030B8000030B70083
:103D9E003A08390438043704031DEE2E0030BE00F5
:103DAE000030BD000030BC000030BB008030BD04D0
:103DBE007F30BE044808BF003F08BE043E08BA006C
:103DCE003D08B9003C08B8003B08B70008004F0892
:103DDE00031DFA2E0030BA000030B9000030B800D2
:103DEE000030B70008004F08BF00C0014008C200F5
:103DFE0050083F02C100031CC20341087F3EC900A8
:103E0E000030423DCA003E08C7003D08C6003C08CF
:103E1E00C5003B08C4000030BE000030BD000030BD
:103E2E00BC000030BB000030CE000030CD000030B2
:103E3E00CC000030CB00D0011A30500203185F2F97
:103E4E0050080319412F0130C435C50DC60DC70DDD
:103E5E00890B2B2F0130BB35BC0DBD0DBE0D890B53
:103E6E00322FCE1B3B140130CB35CC0DCD0DCE0DEC
:103E7E00890B3B2F3A084702031D4F2F3908460284
:103E8E00031D4F2F38084502031D4F2F37084402DC
:103E9E00031C5A2F4E173708C4023808C53B390881
:103EAE00C63B3A08C73B0130BF003F08D007232F5F
:103EBE004708460445044404031D4B14BD1B7C2FC8
:103ECE000130BB35BC0DBD0DBE0D890B682FCE1B51
:103EDE003B140130CB35CC0DCD0DCE0D890B712F92
:103EEE00FF30C907FF30CA3D652FD001CE1F952F79
:103EFE00FF304B05BF00FF304C05C000FF304D05B5
:103F0E00C1007F304E05C2004208410440043F0408
:103F1E0003193B18932F952FD001D00A500803197F
:103F2E00BE2F0130BB070030BC3D0030BD3D003020
:103F3E00BE3D3E1CBE2F3B08BF003C08C0003D08E6
:103F4E00C1003E08C2000130C300C237C10CC00C14
:103F5E00BF0CC30BAC2F4208BE004108BD00400889
:103F6E00BC003F08BB000130C9070030CA3D4A08FB
:103F7E00803ABF0080303F02031DC72FFF30490239
:103F8E00031CD62FFF302000C9000030CA000030BD
:103F9E00BE000030BD000030BC000030BB00200071
:103FAE004A08803ABF0080303F02031DE02F0130E7
:103FBE0049020318EE2F2000C901CA010030BE00CD
:103FCE000030BD000030BC000030BB00C801200036
:103FDE004908BF003F08CF004F1CF72FBD17FB2F1E
:103FEE007F30BF003F08BD054F36BF003F08BE0003
:023FFE00E12EB2
:020000040001F9
:04000E00C42FFB3EC2
:00000001FF
